:020000040800F2
:1000000080070020D5010008D938000875080008CD
:10001000D538000869040008C74600080000000041
:100020000000000000000000000000001D3C00086F
:10003000AD04000800000000A1390008313D0008AF
:10004000EF010008EF010008EF010008EF010008D0
:10005000EF010008EF010008AF040008EF010008FD
:10006000EF010008EF010008EF010008EF010008B0
:10007000EF010008EF010008EF010008EF010008A0
:10008000EF010008EF010008EF010008EF01000890
:10009000EF010008EF010008EF010008EF01000880
:1000A000EF0100085D400008EF010008EF010008C3
:1000B000EF010008A5400008D5400008EF01000846
:1000C000EF010008EF010008EF010008EF01000850
:1000D000EF0100088D440008EF010008EF0100085F
:1000E000EF010008EF010008EF010008EF01000830
:1000F000EF010008EF010008EF010008EF01000820
:10010000EF010008EF010008EF010008EF0100080F
:10011000EF010008EF010008EF010008EF010008FF
:10012000EF010008EF010008EF010008EF010008EF
:1001300000F002F800F03FF80AA090E8000C8244BA
:100140008344AAF10107DA4501D100F034F8AFF297
:10015000090EBAE80F0013F0010F18BFFB1A43F0A5
:1001600001031847FCBC02001CBD0200103A24BF6A
:1001700078C878C1FAD8520724BF30C830C144BF0C
:1001800004680C607047000000230024002500264E
:10019000103A28BF78C1FBD8520728BF30C148BFEA
:1001A0000B607047782900F07780002070471FB5FA
:1001B0001FBD10B510BD00F027F91146FFF7F7FF7E
:1001C00004F062FB00F045F903B4FFF7F2FF03BC53
:1001D00004F0B4FA0948804709480047FEE7FEE703
:1001E000FEE7FEE7FEE7FEE7FEE7FEE7FEE7FEE7E7
:1001F00004480549054A064B704700005D3D00086C
:1002000031010008800100208007002080030020C9
:1002100080030020704700000FB4044910B503AA02
:10022000029800F0C3F810BC5DF814FB1C0000201D
:100230002DE9F0410E460446002020622046E16888
:10024000884730B3252805D0D4E901219047206A9A
:10025000401CF2E7E168204600278847050018D0D7
:10026000A5F14100192802D820354FF40067324625
:10027000294620462760FFF795FF40B1012804D0AA
:10028000F61D26F007060836D8E7361DD6E72846BD
:10029000DAE7206ABDE8F08170B504460D462146D4
:1002A0001068AFF300802188090502D50F4A7A440F
:1002B00002E00E4A7A440E32002104F1240305E0E4
:1002C00000F00F060009965D5E54491C0028F7D126
:1002D00020780023000704D5702D02D009B1022335
:1002E00011322046BDE8704000F006B886BB02001F
:1002F00070477047704770472DE9F0470D469946A3
:100300009246044600F124080168880604D5E06995
:1003100021F01001216000E00120A84201DD471B0F
:1003200000E00027A1697A1902EB0900081AA06110
:100330002078C00602D42046AFF30080002608E0F3
:10034000D4E901211AF806009047206A401C761C67
:1003500020624E45F4DB2078C0060AD52046AFF374
:10036000008006E0D4E9012130209047206A401C3B
:100370002062381EA7F10107F4DC07E0D4E901216F
:1003800018F805009047206A401C2062281EA5F13D
:100390000105F3DC2046AFF300802078000602D58B
:1003A0000220BDE8F0870120FBE70000074B70B595
:1003B0000D467B4400F011F80446284600F020F872
:1003C00010B14FF0FF3070BD204670BD6744000093
:1003D00001694A1C02610878704700B58FB0CDE909
:1003E00001310021059105497944CDE903101146F9
:1003F0006846FFF71DFF0FB000BD0000E5FFFFFFDF
:10040000007B00F080007047754600F029F8AE468A
:1004100005006946534620F00700854618B020B510
:10042000FFF7E6FEBDE820404FF000064FF0000762
:100430004FF000084FF0000B21F00701AC46ACE88C
:10044000C009ACE8C009ACE8C009ACE8C0098D46F9
:1004500070470446AFF300802046FFF7B5FE00006A
:10046000004870472001002000BFFEE710B50024BF
:1004700000200C49086013E00B48006858B1601C6C
:10048000C4B21E2004F07EF9642C09DB002005496B
:100490000860012010BD0120024908600020F9E732
:1004A000EAE700009481214200012142704710B523
:1004B000012000F007F8FFF7D9FF08B103F039FC7D
:1004C00010BD00000149086070470000140401409D
:1004D000002123498279002A3AD00A46126803682B
:1004E0009A430B461A600A1D126803689A430B1D53
:1004F0001A60027911440A6803681A430A60184AAC
:100500000832126803689A43154B08331A601A1DA3
:10051000126803689A43124B0C331A604279102A0E
:100520000ED11A1F126803681A430D4B08331A6064
:100530001A1D126803681A43094B0C331A600DE048
:100540000749427911440A6803681A430A6005E0C2
:10055000027911440A6803689A430A6070470000F0
:100560000004014051B18200A2F1C042126842F081
:1005700001038200A2F1C042136009E08200A2F1EF
:10058000C0421268034B1A408300A3F1C0431A60B3
:1005900070470000FEFF0F00D0E901121143C2684E
:1005A0001143026911434269114382691143C269CF
:1005B0001143026A1143426A1143826A1143C26ABB
:1005C0001143026B114302689200A2F1C042116014
:1005D000816808290BD101688900A1F1C04109682F
:1005E00041F0400201688900A1F1C0410A60416BFD
:1005F0000968426B526841EA0211426B926841EA13
:100600000221426B928941EA0241426B128A41EA1D
:100610000251426B127D41EA0261426B92691143C1
:100620000268521C9200A2F1C0421160C16AB1F589
:10063000804F1BD1816B0968826B526841EA0211BD
:10064000826B926841EA0221826B128A41EA02516E
:10065000826B127D41EA0261826B926911430268EA
:100660009200A2F1C042C2F8041107E06FF070429C
:1006700001688900A1F1C041C1F804217047000060
:1006800008B50121102003F0ADF94FF47070ADF8FA
:10069000000010208DF8030003208DF80200694649
:1006A000044800F04FF84FF47071024800F0DEF893
:1006B00008BD0000001001400020064908600649FE
:1006C000C1F89C010349083108600349C1F8A4013D
:1006D0007047000098012242000022420120074991
:1006E000086000200649C1F89C01044908310860EF
:1006F00001200349C1F8A40170470000980122427B
:100700000000224230B500228B071C0F0F2303FA92
:1007100004F20B4B8C1053F824309343084C8D108B
:1007200044F8253023468C1053F824308C07240FCE
:1007300000FA04F42343024C8D1044F8253030BDF8
:10074000080001402DE9F041024600250026002066
:1007500000230024002791F803C00CF00F0591F846
:1007600003C00CF0100CBCF1000F03D091F802C0D4
:100770004CEA050591F800C0BCF1000F31D01468B7
:1007800000202BE04FF0010C0CFA00F3B1F800C090
:100790000CEA03069E4220D183004FF00F0C0CFAA6
:1007A00003F7BC4305FA03FC4CEA040491F803C0C8
:1007B000BCF1280F06D14FF0010C0CFA00FCC2F876
:1007C00014C00AE091F803C0BCF1480F05D14FF006
:1007D000010C0CFA00FCC2F810C0401C0828D1D350
:1007E0001460B1F800C0BCF1FF0F34DD5468002084
:1007F0002EE000F1080C4FF0010808FA0CF3B1F8F4
:1008000000C00CEA03069E4221D183004FF00F0C7A
:100810000CFA03F7BC4305FA03FC4CEA040491F814
:1008200003C0BCF1280F05D100F1080C08FA0CF840
:10083000C2F8148091F803C0BCF1480F07D100F151
:10084000080C4FF0010808FA0CF8C2F81080401CA0
:100850000828CED35460BDE8F0810246002093689A
:100860000B400BB1012000E0002070474161704750
:100870000161704700BFFEE708B50121042003F0C5
:10088000B1F87020ADF8000048208DF803006946EB
:100890000148FFF757FF08BD000801400020044948
:1008A00008700448006800F070000870704700008D
:1008B000360000200808014008B50121442003F05B
:1008C00091F81820ADF8000048208DF80300694623
:1008D0000648FFF737FF0120ADF8000028208DF80B
:1008E000030069460248FFF72DFF08BD00180140CC
:1008F0000008014010B5044614B1012023490870D6
:100900002248007858B310212148FFF7A6FF50B1C4
:1009100008211F48FFF7A1FF28B101211D48FFF75B
:100920009CFF01281BD10A2003F02CFF002017494F
:10093000087010211648FFF790FF08B9012010BD7C
:1009400008211348FFF789FF08B90220F7E70121C2
:100950001048FFF782FF012815D10320EFE710218F
:100960000B48FFF77AFF01280DD108210848FFF74F
:1009700074FF012807D101210648FFF76EFF10B967
:100980000120024908700020D9E70000370000204C
:10099000001801400008014008B50121082003F0BB
:1009A00021F8C020ADF8000010208DF803000320CE
:1009B0008DF8020069460D48FFF7C4FEC0210B48C0
:1009C000FFF754FF4FF47040ADF8000010208DF891
:1009D000030003208DF8020069460448FFF7B2FEC9
:1009E0004FF470410148FFF741FF08BD000C014082
:1009F00070B5044600260948058840884543002113
:100A0000084602F0AFFD02F02DFF00BF02E00448EF
:100A10000480761CAE42FAD370BD000010010020A5
:100A20000008006C10B5044649488471002C45D17B
:100A3000F020474908804FF4A0704880084680881D
:100A400045F21051884210D14FF43050404908818E
:100A50004FF4285048814FF42C5088814FF4F070A7
:100A600008804FF4487048801AE03948808841F681
:100A7000631188420DD12C20354908812B204881F3
:100A80002A2088814FF4F07008804FF44870488025
:100A900006E02C202E4908812A2048812B208881BD
:100AA0002B48808845F2103188424CD14FF4A07019
:100AB000274908804FF4F070488044E04FF4A0705C
:100AC00023490880F02048800846808845F210516C
:100AD000884210D14FF430501D4908814FF42850FE
:100AE00048814FF42C5088814FF4487008804FF4AF
:100AF000F07048801AE01648808841F663118842F9
:100B00000DD12C20124908812A2048812B20888170
:100B10004FF4487008804FF4F070488006E02C20B5
:100B20000B4908812A2048812B2088810848808829
:100B300045F21031884206D14FF4F0700449088024
:100B40004FF4A0704880002002F0F2FB10BD0000BE
:100B50001001002010B503460C463848808845F245
:100B60001051884220D13549488902F075FE18128B
:100B700002F06CFE31494989491C88B202F06CFED2
:100B8000D8B202F063FE2D49888902F065FE20127A
:100B900002F05CFE29498989491C88B202F05CFE9A
:100BA000E0B202F053FE42E02448808841F663112F
:100BB000884228D12148807920B920480088401EE9
:100BC000C01A83B21D49488902F046FE181202F08D
:100BD0003DFED8B202F03AFE181202F037FED8B24B
:100BE00002F034FE1549888902F036FE201202F028
:100BF0002DFEE0B202F02AFE201202F027FEE0B243
:100C000002F024FE13E00D49488902F025FE181277
:100C100002F01CFED8B202F019FE0849888902F0E1
:100C20001BFE201202F012FEE0B202F00FFE03489B
:100C3000008903490880881C028010BD1001002033
:100C4000FE07006C00B59FB00121080202F0AAFE69
:100C500001214FF4B47002F0C5FE0120ADF8780018
:100C600010208DF87B0003208DF87A001EA9FE4825
:100C7000FFF768FD4CF23370ADF8780018208DF85E
:100C80007B0003208DF87A001EA9F848FFF75AFD73
:100C90004FF68070ADF8780018208DF87B000320A7
:100CA0008DF87A001EA9F248FFF74CFD41F20100D1
:100CB000ADF8780018208DF87B0003208DF87A00BD
:100CC0001EA9EC48FFF73EFD012008900020099086
:100CD0000F200A9000200B900C900D900E90019028
:100CE0000290032003900020049005900690079046
:100CF00006200F90002010901190102012900020DC
:100D0000139015901490169017904FF480501890EF
:100D1000002019904FF480401A9000201B9008A8E2
:100D20001C9001A81D900FA8FFF736FC012106209A
:100D3000FFF718FC322003F025FDD32002F08CFDD4
:100D400002F0C2FACC49888002F0BEFACA49888013
:100D500002F0BAFAC8498880084680884FF6FF71C9
:100D600001EA0020C449888002F0AEFAC2498988AD
:100D70000843C14988800846808849F24131884249
:100D80007DD0042002F068FD02F09EFABA49888006
:100D900002F09AFAB849888002F096FAB64988803B
:100DA000084680884FF6FF7101EA0020B24988802A
:100DB00002F08AFAB04989880843AF49888008461A
:100DC000808848F25251884203D147F28970AA497B
:100DD0008880A948808847F289718842D0D0D42081
:100DE00002F03AFD02F070FAA349888002F06CFA32
:100DF000A149888002F068FA9F4988800846808867
:100E00004FF6FF7101EA00209B49888002F05CFAEE
:100E1000994989880843984988800846808845F21E
:100E20001031884262D055214FF4704002F024FD09
:100E3000AA214FF2010002F01FFD52214FF20200E1
:100E400002F01AFD08214FF2030002F015FD012106
:100E50004FF2040002F010FD4FF4454002F0FCFC9C
:100E600002F032FA84498880084680884FF6FF7184
:100E700001EA0020804988804CF2015000E035E012
:100E800002F0EAFC02F020FA7B49898808437A499B
:100E90008880052003F076FC7748808845F2105161
:100EA000884223D0A12002F0D7FC02F00DFA72494B
:100EB000888002F009FA70498880084680884FF6D9
:100EC000FF7101EA00206C49888002F0FDF96A494F
:100ED00089880843684988800846808845F261719E
:100EE000884203D141F66310634988806248818853
:100EF00062A0FFF791F96048808849F24131884249
:100F00007ED1CF2002F0A8FC002002F09FFCC1207F
:100F100002F09CFC302002F099FCED2002F09CFCD9
:100F2000642002F093FC032002F090FC122002F0F7
:100F30008DFC812002F08AFCE82002F08DFC8520E7
:100F400002F084FC102002F081FC7A2002F07EFC8A
:100F5000CB2002F081FC392002F078FC2C2002F03A
:100F600075FC002002F072FC342002F06FFC0220BD
:100F700002F06CFCF72002F06FFC202002F066FC0F
:100F8000EA2002F069FC002002F060FC002002F080
:100F90005DFCC02002F060FC1B2002F057FCC12069
:100FA00002F05AFC012002F051FCC52002F054FC72
:100FB000302002F04BFC302002F048FCC72002F049
:100FC0004BFCB72002F042FC362002F045FC4820E2
:100FD00002F03CFC3A2002F03FFC552002F036FCC7
:100FE000B12002F039FC002002F030FC1A2002F09F
:100FF0002DFCB62002F030FC0A2002F027FC00E0B5
:10100000ABE0A22002F022FCF22002F025FC00203E
:1010100002F01CFC262002F01FFC012002F016FC4E
:10102000E02002F019FC0F2002F010FC2A2002F050
:101030000DFC282002F00AFC082002F007FC0E201C
:1010400002F004FC082002F001FC542002F0FEFB38
:10105000A92002F0FBFB432002F0F8FB0A2002F07B
:10106000F5FB0F2012E00000000C014000140140CD
:10107000001801400020014010010020204C434492
:101080002049443A25780D0A0000000002F0DEFBFA
:10109000002002F0DBFB002002F0D8FB002002F071
:1010A000D5FB002002F0D2FBE12002F0D5FB0020AE
:1010B00002F0CCFB152002F0C9FB172002F0C6FBA2
:1010C000072002F0C3FB112002F0C0FB062002F053
:1010D000BDFB2B2002F0BAFB562002F0B7FB3C20F0
:1010E00002F0B4FB052002F0B1FB102002F0AEFBD1
:1010F0000F2002F0ABFB3F2002F0A8FB3F2002F0E4
:10110000A5FB0F2002F0A2FB2B2002F0A5FB002084
:1011100002F09CFB002002F099FB012002F096FBFC
:101120003F2002F093FB2A2002F096FB002002F001
:101130008DFB002002F08AFB002002F087FBEF20ED
:1011400002F084FB112002F087FB782003F01AFBE9
:10115000292002F081FB02F0A6B8FE48808847F201
:10116000897188427ED1112002F076FB782003F04D
:1011700009FB362002F070FB002002F067FB3A20EA
:1011800002F06AFB052002F061FBB22002F064FB72
:101190000C2002F05BFB0C2002F058FB002002F058
:1011A00055FB332002F052FB332002F04FFBB720F7
:1011B00002F052FB352002F049FBBB2002F04CFB51
:1011C000322002F043FBC02002F046FB0C2002F06C
:1011D0003DFBC22002F040FB012002F037FBC320A0
:1011E00002F03AFB102002F031FBC42002F034FB85
:1011F000202002F02BFBC62002F02EFB0F2002F075
:1012000025FBD02002F028FBA42002F01FFBA12028
:1012100002F01CFBE02002F01FFBD02002F016FBC6
:10122000002002F013FB022002F010FB072002F066
:101230000DFB0A2002F00AFB282002F007FB3220F7
:1012400002F004FB442002F001FB422002F0FEFA0F
:10125000062002F0FBFA0E2002F0F8FA122002F04B
:10126000F5FA00E054E0142002F0F0FA172002F042
:10127000EDFAE12002F0F0FAD02002F0E7FA0020C7
:1012800002F0E4FA022002F0E1FA072002F0DEFAAE
:101290000A2002F0DBFA282002F0D8FA312002F00E
:1012A000D5FA542002F0D2FA472002F0CFFA0E20ED
:1012B00002F0CCFA1C2002F0C9FA172002F0C6FA9C
:1012C0001B2002F0C3FA1E2002F0C0FA2A2002F00E
:1012D000C3FA002002F0BAFA002002F0B7FA0020A8
:1012E00002F0B4FAEF2002F0B1FA2B2002F0B4FAC7
:1012F000002002F0ABFA002002F0A8FA012002F070
:10130000A5FA3F2002F0A2FA292002F0A5FA22E76E
:101310009048808845F21031884240F07C87ED206B
:1013200002F09AFA012002F091FAFE2002F08EFA01
:10133000EE2002F091FADE2002F088FA212002F07D
:1013400085FAF12002F088FA012002F07FFADF200E
:1013500002F082FA102002F079FAC42002F07CFA3E
:101360008F2002F073FAC62002F076FA002002F015
:101370006DFAE22002F06AFAE22002F067FAE22057
:1013800002F064FABF2002F067FAAA2002F05EFAC7
:10139000B02002F061FA0D2002F058FA002002F0AD
:1013A00055FA0D2002F052FA002002F04FFA1120F7
:1013B00002F04CFA002002F049FA192002F046FA35
:1013C000002002F043FA212002F040FA002002F04F
:1013D0003DFA2D2002F03AFA002002F037FA3D20C3
:1013E00002F034FA002002F031FA5D2002F02EFA09
:1013F000002002F02BFA5D2002F028FA002002F013
:1014000025FAB12002F028FA802002F01FFA00200D
:1014100002F01CFA8B2002F019FA002002F016FAF2
:10142000962002F013FA002002F010FAB22002F027
:1014300013FA002002F00AFA002002F007FA022054
:1014400002F004FA002002F001FA032002F0FEF993
:10145000002002F0FBF9B32002F0FEF9002002F0B8
:10146000F5F9002002F0F2F9002002F0EFF9002077
:1014700002F0ECF9002002F0E9F9002002F0E6F9B0
:10148000002002F0E3F9002002F0E0F9002002F071
:10149000DDF9002002F0DAF9002002F0D7F900208F
:1014A00002F0D4F9002002F0D1F9002002F0CEF9C8
:1014B000002002F0CBF9002002F0C8F9002002F071
:1014C000C5F9002002F0C2F9002002F0BFF90020A7
:1014D00002F0BCF9002002F0B9F9002002F0B6F9E0
:1014E000002002F0B3F9002002F0B0F9B42002F0BD
:1014F000B3F98B2002F0AAF9002002F0A7F9962098
:1015000002F0A4F9002002F0A1F9A12002F09EF956
:10151000002002F09BF9B52002F09EF9022002F0B3
:1015200095F9002002F092F9032002F08FF90020D3
:1015300002F08CF9042002F089F9002002F086F90B
:10154000B62002F089F9002002F080F9002002F0B4
:101550007DF901E010010020B72002F07DF90020A4
:1015600002F074F9002002F071F93F2002F06EF9E8
:10157000002002F06BF95E2002F068F9002002F012
:1015800065F9642002F062F9002002F05FF98C2016
:1015900002F05CF9002002F059F9AC2002F056F993
:1015A000002002F053F9DC2002F050F9002002F094
:1015B0004DF9702002F04AF9002002F047F990201E
:1015C00002F044F9002002F041F9EB2002F03EF96C
:1015D000002002F03BF9DC2002F038F9002002F094
:1015E00035F9B82002F038F9002002F02FF9002078
:1015F00002F02CF9002002F029F9002002F026F96F
:10160000002002F023F9002002F020F9002002F06F
:101610001DF9002002F01AF9BA2002F01DF9242069
:1016200002F014F9002002F011F9002002F00EF986
:10163000002002F00BF9C12002F00EF9202002F088
:1016400005F9002002F002F9542002F0FFF8002012
:1016500002F0FCF8FF2002F0F9F8002002F0F6F8A2
:10166000C22002F0F9F80A2002F0F0F8002002F09F
:10167000EDF8042002F0EAF8002002F0E7F8C320B9
:1016800002F0EAF83C2002F0E1F8002002F0DEF877
:101690003A2002F0DBF8002002F0D8F8392002F0FE
:1016A000D5F8002002F0D2F8372002F0CFF8002061
:1016B00002F0CCF83C2002F0C9F8002002F0C6F895
:1016C000362002F0C3F8002002F0C0F8322002F009
:1016D000BDF8002002F0BAF82F2002F0B7F8002081
:1016E00002F0B4F82C2002F0B1F8002002F0AEF8BD
:1016F000292002F0ABF8002002F0A8F8262002F022
:10170000A5F8002002F0A2F8242002F09FF80020A3
:1017100002F09CF8242002F099F8002002F096F8DC
:10172000232002F093F8002002F090F83C2002F011
:101730008DF8002002F08AF8362002F087F80020A9
:1017400002F084F8322002F081F8002002F07EF8E6
:101750002F2002F07BF8002002F078F82C2002F015
:1017600075F8002002F072F8292002F06FF80020CE
:1017700002F06CF8262002F069F8002002F066F80A
:10178000242002F063F8002002F060F8242002F028
:101790005DF8002002F05AF8232002F057F80020EC
:1017A00002F054F8C42002F057F8622002F04EF81C
:1017B000002002F04BF8052002F048F8002002F06B
:1017C00045F8842002F042F8002002F03FF8F020B3
:1017D00002F03CF8002002F039F8182002F036F848
:1017E000002002F033F8A42002F030F8002002F0CC
:1017F0002DF8182002F02AF8002002F027F85020D7
:1018000002F024F8002002F021F80C2002F01EF86B
:10181000002002F01BF8172002F018F8002002F058
:1018200015F8952002F012F8002002F00FF8F320CE
:1018300002F00CF8002002F009F8E62002F006F8A9
:10184000002002F003F8C52002F006F8322001F073
:10185000FDFF002001F0FAFF442001F0F7FF002017
:1018600001F0F4FF652001F0F1FF002001F0EEFF30
:10187000762001F0EBFF002001F0E8FF882001F066
:10188000E5FF002001F0E2FFC62001F0E5FF202087
:1018900001F0DCFF002001F0D9FF172001F0D6FF96
:1018A000002001F0D3FF012001F0D0FF002001F063
:1018B000CDFFC72001F0D0FF002001F0C7FF0020BE
:1018C00001F0C4FF002001F0C1FF002001F0BEFFC5
:1018D000C82001F0C1FF002001F0B8FF002001F096
:1018E000B5FF002001F0B2FF002001F0AFFFC920DA
:1018F00001F0B2FF002001F0A9FF002001F0A6FFD7
:10190000002001F0A3FF002001F0A0FF002001F063
:101910009DFF002001F09AFF002001F097FF0020BA
:1019200001F094FF002001F091FF002001F08EFFF4
:10193000002001F08BFF002001F088FF002001F063
:1019400085FF002001F082FF002001F07FFF0020D2
:1019500001F07CFFE02001F07FFF162001F076FF10
:10196000002001F073FF1C2001F070FF002001F047
:101970006DFF212001F06AFF002001F067FF362093
:1019800001F064FF002001F061FF462001F05EFFDE
:10199000002001F05BFF522001F058FF002001F011
:1019A00055FF642001F052FF002001F04FFF7A2024
:1019B00001F04CFF002001F049FF8B2001F046FFB1
:1019C000002001F043FF992001F040FF002001F0CA
:1019D0003DFFA82001F03AFF002001F037FFB920B9
:1019E00001F034FF002001F031FFC42001F02EFF90
:1019F000002001F02BFFCA2001F028FF002001F099
:101A000025FFD22001F022FF002001F01FFFD92086
:101A100001F01CFF002001F019FFE02001F016FF8B
:101A2000002001F013FFF32001F010FF002001F06F
:101A30000DFFE12001F010FF162001F007FF00204C
:101A400001F004FF1C2001F001FF002001F0FEFE68
:101A5000222001F0FBFE002001F0F8FE362001F00C
:101A6000F5FE002001F0F2FE452001F0EFFE00201F
:101A700001F0ECFE522001F0E9FE002001F0E6FE4C
:101A8000642001F0E3FE002001F0E0FE7A2001F086
:101A9000DDFE002001F0DAFE8B2001F0D7FE0020F1
:101AA00001F0D4FE992001F0D1FE002001F0CEFE1D
:101AB000A82001F0CBFE002001F0C8FEB92001F003
:101AC000C5FE002001F0C2FEC42001F0BFFE0020D0
:101AD00001F0BCFECA2001F0B9FE002001F0B6FE04
:101AE000D22001F0B3FE002001F0B0FED82001F0BA
:101AF000ADFE002001F0AAFEE02001F0A7FE0020CC
:101B000001F0A4FEF32001F0A1FE002001F09EFEF2
:101B1000E22001F0A1FE052001F098FE002001F076
:101B200095FE0B2001F092FE002001F08FFE1B209D
:101B300001F08CFE002001F089FE342001F086FEC9
:101B4000002001F083FE442001F080FE002001F01F
:101B50007DFE4F2001F07AFE002001F077FE61202B
:101B600001F074FE002001F071FE792001F06EFE9C
:101B7000002001F06BFE882001F068FE002001F0DB
:101B800065FE972001F062FE002001F05FFEA620B6
:101B900001F05CFE002001F059FEB72001F056FE76
:101BA000002001F053FEC22001F050FE002001F0A1
:101BB0004DFEC72001F04AFE002001F047FED12073
:101BC00001F044FE002001F041FED62001F03EFE6F
:101BD000002001F03BFEDD2001F038FE002001F086
:101BE00035FEF32001F032FE002001F02FFEE3204D
:101BF00001F032FE052001F029FE002001F026FE52
:101C00000A2001F023FE002001F020FE1C2001F03C
:101C10001DFE002001F01AFE332001F017FE002007
:101C200001F014FE442001F011FE002001F00EFE30
:101C3000502001F00BFE002001F008FE622001F0B0
:101C400005FE002001F002FE782001F0FFFD0020DB
:101C500001F0FCFD882001F0F9FD002001F0F6FD07
:101C6000972001F0F3FD002001F0F0FDA62001F027
:101C7000EDFD002001F0EAFDB72001F0E7FD0020B6
:101C800001F0E4FDC22001F0E1FD002001F0DEFDE5
:101C9000C72001F0DBFD002001F0D8FDD12001F0CC
:101CA000D5FD002001F0D2FDD52001F0CFFD0020B0
:101CB00001F0CCFDDD2001F0C9FD002001F0C6FDE2
:101CC000F32001F0C3FD002001F0C0FDE42001F08D
:101CD000C3FD012001F0BAFD002001F0B7FD012095
:101CE00001F0B4FD002001F0B1FD022001F0AEFDD5
:101CF000002001F0ABFD2A2001F0A8FD002001F03A
:101D0000A5FD3C2001F0A2FD002001F09FFD4B202D
:101D100001F09CFD002001F099FD5D2001F096FD91
:101D2000002001F093FD742001F090FD002001F0EF
:101D30008DFD842001F08AFD002001F087FD9320B5
:101D400001F084FD002001F081FDA22001F07EFD64
:101D5000002001F07BFDB32001F078FD002001F0B0
:101D600075FDBE2001F072FD002001F06FFDC42062
:101D700001F06CFD002001F069FDCD2001F066FD51
:101D8000002001F063FDD32001F060FD002001F090
:101D90005DFDDD2001F05AFD002001F057FDF3202C
:101DA00001F054FD002001F051FDE52001F054FD4B
:101DB000002001F04BFD002001F048FD002001F063
:101DC00045FD002001F042FD022001F03FFD002012
:101DD00001F03CFD292001F039FD002001F036FD25
:101DE0003C2001F033FD002001F030FD4B2001F0DC
:101DF0002DFD002001F02AFD5D2001F027FD0020CF
:101E000001F024FD742001F021FD002001F01EFDF1
:101E1000842001F01BFD002001F018FD932001F04B
:101E200015FD002001F012FDA22001F00FFD0020A1
:101E300001F00CFDB32001F009FD002001F006FDCA
:101E4000BE2001F003FD002001F000FDC42001F0E0
:101E5000FDFC002001F0FAFCCD2001F0F7FC002091
:101E600001F0F4FCD32001F0F1FC002001F0EEFCC5
:101E7000DC2001F0EBFC002001F0E8FCF32001F095
:101E8000E5FC002001F0E2FCE62001F0E5FC112079
:101E900001F0DCFC002001F0D9FC342001F0D6FC7C
:101EA000002001F0D3FC562001F0D0FC002001F00E
:101EB000CDFC762001F0CAFC002001F0C7FC7720A1
:101EC00001F0C4FC002001F0C1FC662001F0BEFC62
:101ED000002001F0BBFC882001F0B8FC002001F0DC
:101EE000B5FC992001F0B2FC002001F0AFFCBB2052
:101EF00001F0ACFC002001F0A9FC992001F0A6FC47
:101F0000002001F0A3FC662001F0A0FC002001F0FD
:101F10009DFC552001F09AFC002001F097FC552013
:101F200001F094FC002001F091FC452001F08EFCB2
:101F3000002001F08BFC432001F088FC002001F020
:101F400085FC442001F082FC002001F07FFCE720AA
:101F500001F082FC322001F079FC002001F076FCD7
:101F6000552001F073FC002001F070FC762001F098
:101F70006DFC002001F06AFC662001F067FC002087
:101F800001F064FC672001F061FC002001F05EFCC0
:101F9000672001F05BFC002001F058FC872001F075
:101FA00055FC002001F052FC992001F04FFC00206C
:101FB00001F04CFCBB2001F049FC002001F046FC84
:101FC000992001F043FC002001F040FC772001F053
:101FD0003DFC002001F03AFC442001F037FC0020D9
:101FE00001F034FC562001F031FC002001F02EFC01
:101FF000232001F02BFC002001F028FC332001F00D
:1020000025FC002001F022FC452001F01FFC0020EF
:1020100001F01CFCE82001F01FFC002001F016FC80
:10202000002001F013FC992001F010FC002001F0C9
:102030000DFC872001F00AFC002001F007FC88203D
:1020400001F004FC002001F001FC772001F0FEFB10
:10205000002001F0FBFB662001F0F8FB002001F0FE
:10206000F5FB882001F0F2FB002001F0EFFBAA2035
:1020700001F0ECFB002001F0E9FBBB2001F0E6FBE6
:10208000002001F0E3FB992001F0E0FB002001F0CB
:10209000DDFB662001F0DAFB002001F0D7FB5520C4
:1020A00001F0D4FB002001F0D1FB552001F0CEFB64
:1020B000002001F0CBFB442001F0C8FB002001F020
:1020C000C5FB442001F0C2FB002001F0BFFB5520FE
:1020D00001F0BCFB002001F0B9FBE92001F0BCFBE2
:1020E000AA2001F0B3FB002001F0B0FB002001F0BA
:1020F000ADFB002001F0AAFB002001F0ADFBAA20FF
:1021000001F0A4FBCF2001F0A7FB002001F09EFB13
:10211000002001F09BFB002001F098FB002001F063
:1021200095FB002001F092FB002001F08FFB0020C6
:1021300001F08CFB002001F089FB002001F086FB00
:10214000002001F083FB002001F080FB002001F063
:102150007DFB002001F07AFB002001F077FB0020DE
:1021600001F074FB002001F071FB002001F06EFB18
:10217000F02001F071FB002001F068FB502001F01D
:1021800065FB002001F062FB002001F05FFB0020F6
:1021900001F05CFBF32001F05FFB002001F056FB37
:1021A000F92001F059FB062001F050FB102001F04E
:1021B0004DFB292001F04AFB002001F047FB3A20AB
:1021C00001F04AFB552001F041FB112001F044FBD6
:1021D000642002F0D7FA292001F03EFB352001F0FF
:1021E0003BFB002001F032FB512001F035FBFF20CA
:1021F00001F02CFB532001F02FFB2C2001F026FBDB
:10220000552001F029FB822001F020FB2C2001F059
:1022100023FB01F048B8FE48808845F210518842FF
:102220007ED155214FF4704001F026FBAA214FF2D8
:10223000010001F021FB52214FF2020001F01CFBD2
:1022400008214FF2030001F017FB01214FF20400B7
:1022500001F012FB0D214FF4304001F00DFB0D2178
:102260004BF2010001F008FB0D214BF2020001F0DE
:1022700003FB34214FF4364001F0FEFA34214BF2D7
:10228000016001F0F9FA34214BF2026001F0F4FA36
:102290000D214FF4314001F0EFFA0D214BF2011006
:1022A00001F0EAFA0D214BF2021001F0E5FA3421B7
:1022B0004FF4374001F0E0FA34214BF2017001F0A5
:1022C000DBFA34214BF2027001F0D6FA00214FF410
:1022D000324001F0D1FA00214BF2012001F0CCFA9A
:1022E00000214BF2022001F0C7FA24214FF43840BC
:1022F00001F0C2FA24214BF6010001F0BDFA2421BD
:102300004BF6020001F0B8FA01214FF43F4001F012
:10231000B3FA0F214FF4334001F0AEFA0F2100E081
:10232000FEE34BF2013001F0A7FA0F214BF202302D
:1023300001F0A2FA34214FF4394001F09DFA342122
:102340004BF6011001F098FA34214BF6021001F01F
:1023500093FA08214FF4354001F08EFA08214BF230
:10236000015001F089FA08214BF2025001F084FA81
:1023700003214FF4424001F07FFA24214FF43A4008
:1023800001F07AFA24214BF6012001F075FA24219C
:102390004BF6022001F070FA00214FF43C4001F0AE
:1023A0006BFA78214BF6014001F066FA00214BF6FA
:1023B000024001F061FA00214FF43D4001F05CFA67
:1023C00078214BF6015001F057FA00214BF60250EC
:1023D00001F052FA00214FF43E4001F04DFA642121
:1023E0004BF6016001F048FA00214FF4514001F032
:1023F00043FA33214DF2011001F03EFA00214DF273
:10240000021001F039FA34214DF2031001F034FAD0
:1024100000214DF2041001F02FFA3A214DF205107F
:1024200001F02AFA00214DF2061001F025FA4A21A6
:102430004DF2071001F020FA00214DF2081001F0D2
:102440001BFA5C214DF2091001F016FA00214DF241
:102450000A1001F011FA81214DF20B1001F00CFA73
:1024600000214DF20C1001F007FAA6214DF20D10DB
:1024700001F002FA00214DF20E1001F0FDF9E52104
:102480004DF20F1001F0F8F901214DF2101001F09A
:10249000F3F913214DF2111001F0EEF901214DF283
:1024A000121001F0E9F954214DF2131001F0E4F992
:1024B00001214DF2141001F0DFF982214DF21510C7
:1024C00001F0DAF901214DF2161001F0D5F9CA2117
:1024D0004DF2171001F0D0F902214DF2181001F061
:1024E000CBF900214DF2191001F0C6F902214DF28D
:1024F0001A1001F0C1F901214DF21B1001F0BCF9D5
:1025000002214DF21C1001F0B7F934214DF21D10DB
:1025100001F0B2F902214DF21E1001F0ADF9672170
:102520004DF21F1001F0A8F902214DF2201001F028
:10253000A3F984214DF2211001F09EF902214DF200
:10254000221001F099F9A4214DF2231001F094F921
:1025500002214DF2241001F08FF9B7214DF2251020
:1025600001F08AF902214DF2261001F085F9CF2100
:102570004DF2271001F080F902214DF2281001F0F0
:102580007BF9DE214DF2291001F076F902214DF29E
:102590002A1001F071F9F2214DF22B1001F06CF9C3
:1025A00002214DF22C1001F067F9FE214DF22D10A1
:1025B00001F062F903214DF22E1001F05DF91021B6
:1025C0004DF22F1001F058F903214DF2301001F0B7
:1025D00053F933214DF2311001F04EF903214DF240
:1025E000321001F049F96D214DF2331001F044F938
:1025F00000214FF4524001F03FF933214DF2012008
:1026000001F03AF900214DF2022001F035F901E024
:102610001001002034214DF2032001F02DF900219A
:102620004DF2042001F028F93A214DF2052001F085
:1026300023F900214DF2062001F01EF94A214DF246
:10264000072001F019F900214DF2082001F014F9DA
:102650005C214DF2092001F00FF900214DF20A2012
:1026600001F00AF981214DF20B2001F005F900215A
:102670004DF20C2001F000F9A6214DF20D2001F0E1
:10268000FBF800214DF20E2001F0F6F8E5214DF2A5
:102690000F2001F0F1F801214DF2102001F0ECF8CB
:1026A00013214DF2112001F0E7F801214DF2122023
:1026B00001F0E2F854214DF2132001F0DDF8012180
:1026C0004DF2142001F0D8F882214DF2152001F0CE
:1026D000D3F801214DF2162001F0CEF8CA214DF2B7
:1026E000172001F0C9F802214DF2182001F0C4F8BA
:1026F00000214DF2192001F0BFF802214DF21A20FD
:1027000001F0BAF801214DF21B2001F0B5F80221C9
:102710004DF21C2001F0B0F834214DF21D2001F0E3
:10272000ABF802214DF21E2001F0A6F867214DF210
:102730001F2001F0A1F802214DF2202001F09CF8A9
:1027400084214DF2212001F097F802214DF2222040
:1027500001F092F8A4214DF2232001F08DF802211E
:102760004DF2242001F088F8B7214DF2252001F028
:1027700083F802214DF2262001F07EF8CF214DF2A0
:10278000272001F079F802214DF2282001F074F899
:10279000DE214DF2292001F06FF802214DF22A20AE
:1027A00001F06AF8F2214DF22B2001F065F80221C8
:1027B0004DF22C2001F060F8FE214DF22D2001F0A9
:1027C0005BF803214DF22E2001F056F810214DF256
:1027D0002F2001F051F803214DF2302001F04CF888
:1027E00033214DF2312001F047F803214DF2322020
:1027F00001F042F86D214DF2332001F03DF8002147
:102800004FF4534001F038F833214DF2013001F01C
:1028100033F800214DF2023001F02EF834214DF250
:10282000033001F029F800214DF2043001F024F8C2
:102830003A214DF2053001F01FF800214DF206302B
:1028400001F01AF84A214DF2073001F015F8002185
:102850004DF2083001F010F85C214DF2093001F022
:102860000BF800214DF20A3001F006F881214DF2FB
:102870000B3001F001F800214DF20C3000F0FCFFAC
:10288000A6214DF20D3000F0F7FF00214DF20E3081
:1028900000F0F2FFE5214DF20F3000F0EDFF0121D5
:1028A0004DF2103000F0E8FF13214DF2113000F02E
:1028B000E3FF01214DF2123000F0DEFF54214DF212
:1028C000133000F0D9FF01214DF2143000F0D4FF95
:1028D00082214DF2153000F0CFFF01214DF216306C
:1028E00000F0CAFFCA214DF2173000F0C5FF0221E7
:1028F0004DF2183000F0C0FF00214DF2193000F009
:10290000BBFF02214DF21A3000F0B6FF01214DF25B
:102910001B3000F0B1FF02214DF21C3000F0ACFF83
:1029200034214DF21D3000F0A7FF02214DF21E3080
:1029300000F0A2FF67214DF21F3000F09DFF022141
:102940004DF2203000F098FF84214DF2213000F04C
:1029500093FF02214DF2223000F08EFFA4214DF2B0
:10296000233000F089FF02214DF2243000F084FF73
:10297000B7214DF2253000F07FFF02214DF22630C5
:1029800000F07AFFCF214DF2273000F075FF0221D1
:102990004DF2283000F070FFDE214DF2293000F0BA
:1029A0006BFF02214DF22A3000F066FFF2214DF25A
:1029B0002B3000F061FF02214DF22C3000F05CFF63
:1029C000FE214DF22D3000F057FF03214DF22E3045
:1029D00000F052FF10214DF22F3000F04DFF032187
:1029E0004DF2303000F048FF33214DF2313000F02D
:1029F00043FF03214DF2323000F03EFF6D214DF2D6
:102A0000333000F039FF00214FF4544000F034FF20
:102A100033214DF2014000F02FFF00214DF2024022
:102A200000F02AFF34214DF2034000F025FF002181
:102A30004DF2044000F020FF3A214DF2054000F035
:102A40001BFF00214DF2064000F016FF4A214DF217
:102A5000074000F011FF00214DF2084000F00CFF8C
:102A60005C214DF2094000F007FF00214DF20A40C1
:102A700000F002FF81214DF20B4000F0FDFE00212D
:102A80004DF20C4000F0F8FEA6214DF20D4000F092
:102A9000F3FE00214DF20E4000F0EEFEE5214DF276
:102AA0000F4000F0E9FE01214DF2104000F0E4FE7D
:102AB00013214DF2114000F0DFFE01214DF21240D2
:102AC00000F0DAFE54214DF2134000F0D5FE012152
:102AD0004DF2144000F0D0FE82214DF2154000F07E
:102AE000CBFE01214DF2164000F0C6FECA214DF288
:102AF000174000F0C1FE02214DF2184000F0BCFE6C
:102B000000214DF2194000F0B7FE02214DF21A40AB
:102B100000F0B2FE01214DF21B4000F0ADFE00E0DE
:102B200003E302214DF21C4000F0A6FE34214DF2D9
:102B30001D4000F0A1FE02214DF21E4000F09CFE5F
:102B400067214DF21F4000F097FE02214DF2204018
:102B500000F092FE84214DF2214000F08DFE022112
:102B60004DF2224000F088FEA4214DF2234000F0F7
:102B700083FE02214DF2244000F07EFEB7214DF28B
:102B8000254000F079FE02214DF2264000F074FE4F
:102B9000CF214DF2274000F06FFE02214DF2284078
:102BA00000F06AFEDE214DF2294000F065FE0221B0
:102BB0004DF22A4000F060FEF2214DF22B4000F071
:102BC0005BFE02214DF22C4000F056FEFE214DF23C
:102BD0002D4000F051FE03214DF22E4000F04CFE3E
:102BE00010214DF22F4000F047FE03214DF23040FE
:102BF00000F042FE33214DF2314000F03DFE032152
:102C00004DF2324000F038FE6D214DF2334000F0BD
:102C100033FE00214FF4554000F02EFE33214DF2DB
:102C2000015000F029FE00214DF2025000F024FE78
:102C300034214DF2035000F01FFE00214DF20450EC
:102C400000F01AFE3A214DF2055000F015FE002169
:102C50004DF2065000F010FE4A214DF2075000F0F0
:102C60000BFE00214DF2085000F006FE5C214DF2F3
:102C7000095000F001FE00214DF20A5000F0FCFD69
:102C800081214DF20B5000F0F7FD00214DF20C5068
:102C900000F0F2FDA6214DF20D5000F0EDFD0021F7
:102CA0004DF20E5000F0E8FDE5214DF20F5000F01E
:102CB000E3FD01214DF2105000F0DEFD13214DF235
:102CC000115000F0D9FD01214DF2125000F0D4FD59
:102CD00054214DF2135000F0CFFD01214DF214505C
:102CE00000F0CAFD82214DF2155000F0C5FD012112
:102CF0004DF2165000F0C0FDCA214DF2175000F001
:102D0000BBFD02214DF2185000F0B6FD00214DF23E
:102D1000195000F0B1FD02214DF21A5000F0ACFD47
:102D200001214DF21B5000F0A7FD02214DF21C5075
:102D300000F0A2FD34214DF21D5000F09DFD022156
:102D40004DF21E5000F098FD67214DF21F5000F02B
:102D500093FD02214DF2205000F08EFD84214DF2B2
:102D6000215000F089FD02214DF2225000F084FD37
:102D7000A4214DF2235000F07FFD02214DF224509A
:102D800000F07AFDB7214DF2255000F075FD0221CB
:102D90004DF2265000F070FDCF214DF2275000F08B
:102DA0006BFD02214DF2285000F066FDDE214DF250
:102DB000295000F061FD02214DF22A5000F05CFD27
:102DC000F2214DF22B5000F057FD02214DF22C5014
:102DD00000F052FDFE214DF22D5000F04DFD03217B
:102DE0004DF22E5000F048FD10214DF22F5000F012
:102DF00043FD03214DF2305000F03EFD33214DF2F2
:102E0000315000F039FD03214DF2325000F034FD15
:102E10006D214DF2335000F02FFD00214FF456404C
:102E200000F02AFD33214DF2016000F025FD002164
:102E30004DF2026000F020FD34214DF2036000F0FD
:102E40001BFD00214DF2046000F016FD3A214DF209
:102E5000056000F011FD00214DF2066000F00CFD50
:102E60004A214DF2076000F007FD00214DF2086095
:102E700000F002FD5C214DF2096000F0FDFC002134
:102E80004DF20A6000F0F8FC81214DF20B6000F079
:102E9000F3FC00214DF20C6000F0EEFCA6214DF297
:102EA0000D6000F0E9FC00214DF20E6000F0E4FC42
:102EB000E5214DF20F6000F0DFFC01214DF21060C2
:102EC00000F0DAFC13214DF2116000F0D5FC012175
:102ED0004DF2126000F0D0FC54214DF2136000F06E
:102EE000CBFC01214DF2146000F0C6FC82214DF2B2
:102EF000156000F0C1FC01214DF2166000F0BCFC31
:102F0000CA214DF2176000F0B7FC02214DF21860A3
:102F100000F0B2FC00214DF2196000F0ADFC02217E
:102F20004DF21A6000F0A8FC01214DF21B6000F088
:102F3000A3FC02214DF21C6000F09EFC34214DF2F6
:102F40001D6000F099FC02214DF21E6000F094FC1F
:102F500067214DF21F6000F08FFC02214DF22060CE
:102F600000F08AFC84214DF2216000F085FC0221F2
:102F70004DF2226000F080FCA4214DF2236000F0AD
:102F80007BFC02214DF2246000F076FCB7214DF26B
:102F9000256000F071FC02214DF2266000F06CFC0F
:102FA000CF214DF2276000F067FC02214DF228602E
:102FB00000F062FCDE214DF2296000F05DFC022190
:102FC0004DF22A6000F058FCF2214DF22B6000F027
:102FD00053FC02214DF22C6000F04EFCFE214DF21C
:102FE0002D6000F049FC03214DF22E6000F044FCFE
:102FF00010214DF22F6000F03FFC03214DF23060B4
:1030000000F03AFC33214DF2316000F035FC032131
:103010004DF2326000F030FC6D214DF2336000F073
:103020002BFC55214FF4704000F026FCAA214FF2F2
:10303000010000F021FC52214FF2020000F01CFCC4
:1030400008214FF2030000F017FC00214FF20400AA
:1030500000F012FCCC214FF4314000F00DFC0021B7
:103060004BF2011000F008FC05214FF4364000F04F
:1030700003FC70214FF4374000F0FEFB70214BF24F
:10308000017000F0F9FB01214FF4384000F0F4FB2F
:1030900003214BF6010000F0EFFB03214BF6020089
:1030A00000F0EAFB03214BF6030000F0E5FB0221F0
:1030B0004FF43C4000F0E0FB00214BF6014000F0F3
:1030C000DBFB00214BF6024000F0D6FBD0214FF491
:1030D000494000F0D1FB02214CF6011000F0CCFB7E
:1030E00050214CF6021000F0C7FB50214CF60310A3
:1030F00000F0C2FB50214CF6041000F0BDFB002193
:103100004FF4545000F0B8FB55214FF4685000F0D4
:10311000B3FB4FF4885000F09FFB782001F058FB80
:103120004FF4245000F098FBBDE06548808841F6DC
:1031300063118842F8D1E22000F08EFB1D2000F0E0
:1031400085FB022000F082FB042000F07FFB64205E
:1031500001F03EFBE02000F07FFB012000F076FB59
:103160000A2001F00FFBE02000F076FB032000F0C6
:103170006DFB0C2001F006FB012000F06DFB0A2026
:1031800001F000FBE62000F067FB2F2000F05EFB63
:10319000FF2000F05BFBFF2000F058FBB02000F0A8
:1031A0005BFB202000F052FB002000F04FFB0320CF
:1031B00000F04CFB40F21F3000F048FB012000F013
:1031C00045FB40F2DF1000F041FB002000F03EFB29
:1031D000B42000F041FB042000F038FB40F21F4017
:1031E00000F034FB002000F031FB2E2000F02EFB1D
:1031F000002000F02BFB002000F028FB002000F056
:1032000025FB002000F022FBB62000F025FB022069
:1032100000F01CFB4FF4037000F018FB002000F0DE
:1032200015FB172000F012FB152000F00FFB00200B
:1032300000F00CFB002000F009FBF02000F00CFB7C
:10324000032000F003FB292000F006FBD02000F053
:1032500003FB002000F0FAFABE2000F0FDFA052082
:1032600000F0F4FAFE2000F0F1FA012000F0EEFA8E
:10327000002000F0EBFA002000F0E8FA002000F057
:10328000E5FAB82000F0E8FA032000F0DFFA0120A8
:1032900000F0DCFABA2000F0DFFA012000F0D6FAE4
:1032A000642000F01BF80020FDF7BCFB012005495D
:1032B00008604FF6FF70FDF79BFB1FB000BD0000DC
:1032C000100100208081214208B503480088009049
:1032D000BDF8000008BD00000008006C2DE9F047B3
:1032E0000446BE2000F0B8FA052000F0AFFA2046F0
:1032F00001F0B1FC07464FF066320C4B01F0BEFC0A
:10330000054601F07BFC1FFA80F9484600F09EFA62
:10331000012000F09BFAFF2000F098FA002000F056
:1033200095FA002000F092FABDE8F0876666044046
:1033300070B504460023002689488079012805D10C
:103340008748808841F66311884208D18448807993
:10335000F0B98348808841F66311884218D1082C5F
:1033600015D2DFE804F00406080A0C0E1012062439
:103370000DE007240BE0042409E0052407E0012404
:1033800005E0002403E0032401E0022400BF00BFA5
:10339000082C1CD2DFE804F00406090C0F121518E3
:1033A00000BF14E043F0800311E043F040030EE05F
:1033B00043F0C0030BE043F0200308E043F0600358
:1033C00005E043F0A00302E043F0E00300BF00BFCC
:1033D0006348808845F21051884202D14FF4585614
:1033E00000E036265E48808849F24131884205D0A7
:1033F0005B48808847F28971884201D143F0080315
:103400001946304600F038FA5548808841F6631175
:1034100088421DD003F0200068B15148008850490F
:103420004988884214DA4E48058840884C4908800B
:10343000084645800CE04A48008849494988884246
:1034400006DD47480588408845490880084645808C
:103450004348808845F21051884252D140494889FA
:1034600000F0FAF9002000F0F1F93D494989491CC2
:1034700088B200F0F1F9002000F0E8F938494989F4
:10348000891C88B200F0E8F935490988491EC1F362
:103490000F2000F0DBF932494989C91C88B200F0DD
:1034A000DBF92F490978491EC8B200F0CFF92C4941
:1034B000888900F0D1F9002000F0C8F928498989ED
:1034C000491C88B200F0C8F9002000F0BFF9244977
:1034D0008989891C88B200F0BFF921494988491EB1
:1034E000C1F30F2000F0B2F91D498989C91C88B2C7
:1034F00000F0B2F91A498978491EC8B200F0A6F95D
:103500002DE01749488900F0A7F9002000F09EF946
:10351000002000F09BF912490988491EC1F30F20D1
:1035200000F094F90E490978491EC8B200F08EF9EE
:103530000B49888900F090F9002000F087F90020FD
:1035400000F084F906494988491EC1F30F2000F0B4
:103550007DF903498978491EC8B200F077F970BD3A
:103560001001002000B502460B464548808841F610
:103570006311884247D142488079A8B94048008801
:10358000401E801A82B23E49488900F065F9002049
:1035900000F05CF9002000F059F9101200F056F923
:1035A000D0B200F053F916E03549488900F054F9DB
:1035B000101200F04BF9D0B200F048F930490988F8
:1035C000491EC1F30F2000F041F92D490978491E29
:1035D000C8B200F03BF92A49888900F03DF9181279
:1035E00000F034F9D8B200F031F925494988491E74
:1035F000C1F30F2000F02AF921498978491EC8B289
:1036000000F024F93AE01E48808845F210518842C3
:1036100020D11B49488900F01FF9101200F016F95B
:1036200017494989491C88B200F016F9D0B200F058
:103630000DF91349888900F00FF9181200F006F906
:103640000F498989491C88B200F006F9D8B200F008
:10365000FDF813E00A49488900F0FEF8101200F066
:10366000F5F8D0B200F0F2F80549888900F0F4F8D6
:10367000181200F0EBF8D8B200F0E8F800BD000036
:10368000100100202DE9F84F80460E4617461C46D3
:10369000B3462046E31704EB5373DB1021464FEA91
:1036A000E47C04EB5C7C4FEAEC0CA4EBCC0CBCF1AE
:1036B000000F02D04FF0010C01E04FF0000C63440A
:1036C000224604EBD27C4FEA6C0C03FB0CF3DBB21A
:1036D0000093A7F12000C7B2002556E00C2C07D1BB
:1036E00007EB47002B4901EB800010F8059013E031
:1036F000102C05D1284800EB071010F805900BE0BE
:10370000182C07D107EBC700244901EB800010F803
:10371000059001E0BDE8F88F4FF0000A2FE009F0B6
:10372000800030B11E48028831464046FDF712FA4B
:1037300007E00A9828B91B48028831464046FDF741
:1037400009FA4FEA49604FEA1069701C86B21648C0
:103750004088B04200DCDDE7A6EB0B00A0420AD1B6
:103760005E4608F101001FFA80F80F4800884045C6
:1037700000DCCFE706E00AF1010000F0FF0ABAF131
:10378000080FCCDB00BF681CC5B200988542A5DBE2
:1037900000BFBFE778A60208ECAA0208DCB0020866
:1037A0004200002044000020100100202DE9F04FCD
:1037B00004460D4690469946DDF824B0DA46AFB28D
:1037C0000DE0A6B207E03AF8022B39463046FDF785
:1037D000C1F9701C86B24645F5DB781C87B24F45AF
:1037E000EFDBBDE8F08F2DE9F84704460D46904623
:1037F0009946DDE9096704F0FF0A08EB04001FFAA7
:1038000080F809EB05001FFA80F916E0444502DB59
:103810005446A81985B24D4500DB14E00020009005
:103820003A78334629462046FFF72CFF304606EB10
:10383000D07104EB61018CB27F1C38787E2802DCE9
:1038400038782028E2DA00BFBDE8F887014908800F
:10385000704700000008006C0149088070470000B4
:10386000FE07006C0248008902490880704700008A
:1038700010010020FE07006C024A1080921C11808B
:1038800070470000FE07006C08B50121482000F0D9
:10389000A9F82020ADF8000010208DF803000320C7
:1038A0008DF8020069460948FCF74CFF20210748C3
:1038B000FCF7DEFF2020ADF8000069460448FCF765
:1038C00041FF20210248FCF7D3FF08BD000C014056
:1038D0000018014000BFFEE77047000070B50021EE
:1038E00000230F22C47804B3154C246804F4E06468
:1038F000C4F5E064210AC1F10403CA40447804FA23
:1039000003F184781440214309010E4C0678A15537
:10391000047804F01F050124AC4005786D11AD005A
:1039200005F1E025C5F8004109E0047804F01F0521
:103930000124AC40044D0678761145F8264070BD50
:103940000CED00E000E400E080E100E0024901430A
:10395000024A1160704700000000FA050CED00E01B
:103960000A48006840F004000849086008460068FA
:1039700040F0020008600648006840F00400044976
:10398000086000BF00BF30BF7047000000700040FB
:1039900010ED00E00149086070470000A0000E42F1
:1039A0007047000029B1064A52690243044B5A612C
:1039B00004E0034A52698243014B5A617047000098
:1039C0000010024029B1064AD2690243044BDA6171
:1039D00004E0034AD2698243014BDA617047000078
:1039E0000010024029B1064A92690243044B9A61D1
:1039F00004E0034A92698243014B9A6170470000D8
:103A00000010024029B1064AD2680243044BDA6032
:103A100004E0034AD2688243014BDA607047000039
:103A20000010024030B500210022002400232D4D5B
:103A30006D6805F00C0121B1042905D0082923D1B6
:103A400005E0294D056022E0274D05601FE0254D6A
:103A50006D6805F47012234D6D6805F480340225FD
:103A600005EB92421CB9214D554305600BE01D4DFD
:103A70006D6805F400351DB11C4D5543056002E02D
:103A8000194D5543056002E0174D056000BF00BFAA
:103A9000144D6D6805F0F0010909154D6B5C056862
:103AA000DD4045600F4D6D6805F4E061090A104D79
:103AB0006B5C4568DD4085600A4D6D6805F46051BA
:103AC000C90A0B4D6B5C4568DD40C560054D6D68EE
:103AD00005F44041890B074D6B5CC568B5FBF3F5F8
:103AE000056130BD0010024000127A0000093D005F
:103AF000220000203200002000B589B001210820FA
:103B0000FFF770FF01210420FFF75CFF4FF4007006
:103B1000ADF8200028208DF8230003208DF8220026
:103B200008A92248FCF70EFE4FF400711F48FCF76D
:103B30009FFE42F21070ADF814004720ADF810005F
:103B40000020ADF81600ADF8120004A9184800F0E6
:103B50004BFC0C20ADF804000020ADF8060001205D
:103B6000ADF808000020ADF80A000320ADF80C0005
:103B700001A90F4800F09EFB01210D4800F079FBE0
:103B80001E208DF81C0001208DF81D0003208DF8EB
:103B90001E0001208DF81F0007A8FFF79FFE0122DD
:103BA0001121034800F0DCFB09B000BD000C01400E
:103BB0000008004010B50020154B1B7803F04003AF
:103BC0002BB3144B1B68190E124B1B68C3F307422F
:103BD000D343DBB28B420BD151B90E4B1B88C3F3DD
:103BE00007210C4B1A78D343DBB28B4200D1084635
:103BF00020B1074B1B7803F0800343B9044B1B78BB
:103C000023F04003024C23700023034C237010BDAB
:103C1000380000203C00002040000020704710B514
:103C200000F002F810BD00000CB5002001900090DB
:103C30003348006840F480303149086000BF3048A4
:103C4000006800F4003000900198401C019000983A
:103C500018B90198B0F5A06FF1D12948006800F4B7
:103C6000003010B10120009001E000200090009889
:103C7000012843D12348006840F010002149086022
:103C80000846006820F0030008600846006840F01D
:103C9000020008601A4840681949486008464068B0
:103CA00048600846406840F48060486008464068C4
:103CB00020F47C1048600846406840F4E8104860F2
:103CC0000846006840F08070086000BF0C4800683B
:103CD00000F000700028F9D00948406820F0030087
:103CE000074948600846406840F00200486000BF4D
:103CF0000348406800F00C000828F9D10CBD000012
:103D00000010024000200240042808D14FF0E021BA
:103D1000096941F004014FF0E022116107E04FF022
:103D2000E021096921F004014FF0E02211617047A0
:103D3000704710B500214FF4FE70FFF763FE00F0EE
:103D400001F810BD10B501210807FFF73BFE012067
:103D5000FFF720FEFFF704FE10BD000010B513486A
:103D6000006840F0010011490860084640681049A9
:103D700008400E494860084600680E4908400B4953
:103D800008600846006820F4802008600846406803
:103D900020F4FE0048604FF41F008860FFF73FFFEB
:103DA0004FF000600449086010BD000000100240A0
:103DB0000000FFF8FFFFF6FE08ED00E0F0B50C464E
:103DC000154600220021068C4FF6FE773E40068401
:103DD000028B018C4FF60C7632407E1C06EA0316ED
:103DE0002E433243104EB0420ED0104EB0420BD094
:103DF000B0F1804F08D00E4EB04205D00D4EB0420B
:103E000002D00D4EB04206D14FF6FD76314044F05F
:103E10000106314305E04FF6F576314044F00106E6
:103E2000314302830184F0BD002C01400034014085
:103E30000004004000080040000C0040F0B50C46B3
:103E40001546002200210026078C4FF6EF7C07EA7A
:103E50000C070784028B018C4FF6FF7707EA0416E4
:103E600040F6FF473A404FF6FF7707EA03373A43F9
:103E70004FF6FF7707EA05273A43114FB8420ED0B5
:103E8000104FB8420BD0B0F1804F08D00E4FB8425F
:103E900005D00E4FB84202D00D4FB84206D14FF6B2
:103EA000DF77394046F01007394305E04FF65F777A
:103EB000394044F01007394302830184F0BD00000B
:103EC000002C014000340140000400400008004084
:103ED000000C0040F0B50C461546002200210026DB
:103EE000078C4FF6FF6C07EA0C070784828B018C66
:103EF0004FF6FF7707EA04264FF60C773A404FF665
:103F0000FF7707EA03172F433A43114FB8420ED009
:103F1000104FB8420BD0B0F1804F08D00E4FB842CE
:103F200005D00E4FB84202D00D4FB84206D14FF621
:103F3000FF57394046F48077394305E04FF2FF5789
:103F4000394044F48077394382830184F0BD000016
:103F5000002C0140003401400004004000080040F3
:103F6000000C0040F0B50C4615460022002100264A
:103F7000078C4EF6FF7C07EA0C070784828B018CC6
:103F80004FF6FF7707EA043640F6FF473A404FF610
:103F9000FF7707EA05273A434FF6FF7707EA03372B
:103FA0003A43114FB8420ED0104FB8420BD0B0F187
:103FB000804F08D00E4FB84205D00E4FB84202D005
:103FC0000D4FB84206D14DF6FF77394046F4805781
:103FD000394305E047F6FF57394044F480573943E9
:103FE00082830184F0BD0000002C014000340140B8
:103FF0000004004000080040000C00407FB505466A
:104000000C460121C802FFF7EDFCADF80850ADF8F1
:1040100004400020ADF80A00ADF8060001A90E48E2
:1040200000F0E2F9012211460B4800F099F919203D
:104030008DF8000000208DF8010003208DF80200AB
:1040400001208DF803006846FFF748FC0121024873
:1040500000F00FF97FBD0000002C014010B50121D8
:104060000D4800F016F9A8B101210B4800F0FEF848
:104070000A48006808B9012000E0002007490860EC
:104080000748D0F89C0108B9012000E0002003494E
:10409000091D086010BD0000002C014098812142DC
:1040A0000080214210B50121084800F0F2F858B113
:1040B0000121064800F0DAF80548006808B9012037
:1040C00000E000200249086010BD0000000400402C
:1040D0009401234210B501215E4800F0DAF8F8B1EE
:1040E0005D48007800F08000D0B15B48007820F097
:1040F0001000594908700846007800F00F0020B9F8
:104100000846007840F0400008705348007800F0FE
:104110000F000E2805DA50480078401C4E49087000
:104120000AE04D48007820F080004B4908700846AE
:10413000007800F0F00008701021464800F0A9F85F
:10414000002810D04548006870B10221414800F0B5
:1041500010F900213F4800F019F93F48007840F07D
:1041600010003D49087070E03A4800F08EF83C4974
:1041700008800021374800F0FCF83748007800F04C
:10418000100000285BD03448007800F08000E8B3CD
:1041900033480088B0F5967F0DDD31480088B0F5D2
:1041A000487F08DA2F48006840002E49086008461A
:1041B0000068086043E02A480088B0F5AF6F0FDD63
:1041C00027480088B0F5E16F0ADA26480068400009
:1041D000244908600846006840F0010008602EE0AD
:1041E0001F48008840F69801884228DD1C48008856
:1041F00040F62821884222DA1B480078401C1A49E0
:1042000008701548007800F0F00000E002E0124964
:10421000087014E01248008841F2680188420EDDFF
:104220000F48008841F25C21884208DA0A48007889
:1042300040F080000849087000200B4908700648CB
:10424000007820F01000044908701121014800F0A6
:104250000DF810BD000800403800002024812142E4
:104260003A0000203C00002040000020CA430282A7
:10427000704721B1028842F00102028004E0028806
:104280004FF6FE731A40028070470146B1F84000B5
:10429000704730B50246002000230024158A05EA45
:1042A0000103958905EA010413B10CB1012000E076
:1042B000002030BD70B505460C46244885420ED01E
:1042C000234885420BD0B5F1804F08D02148854264
:1042D00005D02148854202D02048854200D100E027
:1042E00000BF208850B92389A28861882846FFF73B
:1042F00065FDE188284600F04BF825E02088042879
:104300000AD12389A28861882846FFF797FDE188B2
:10431000284600F046F817E0208808280AD12389AB
:10432000A28861882846FFF7D5FDE188284600F07D
:1043300045F809E02389A28861882846FFF712FE24
:10434000E188284600F043F870BD0000002C0140D1
:10435000003401400004004000080040000C004010
:104360001AB183890B43838102E083898B43838164
:1043700070470A460021018C4DF6FF7319404FF635
:10438000FF7303EA02331943018470478184704745
:10439000028B4FF6F3731A400283028B0A430283A7
:1043A0007047028B4FF2FF331A400283028B4FF6A5
:1043B000FF7303EA01231A4302837047828B4FF68F
:1043C000F3731A408283828B0A4382837047828B05
:1043D0004FF2FF331A408283828B4FF6FF7303EA5A
:1043E00001231A4382837047002202881D4B9842A2
:1043F0000ED01D4B98420BD0B0F1804F08D01B4B14
:10440000984205D01A4B984202D01A4B984204D1D8
:104410004FF68F731A404B881A43174B984207D0B8
:10442000164B984204D04FF6FF431A40CB881A43EC
:1044300002808B8883850B8803850A4B98420BD0BA
:10444000094B984208D00E4B984205D00D4B98422C
:1044500002D00D4B984201D10B7A0386012383824F
:1044600070470000002C014000340140000400406F
:1044700000080040000C0040001000400014004004
:1044800000400140004401400048014010B540F2A6
:1044900025511D4800F057F810B31B4800F00EF9E5
:1044A000C4B21A48008800F40040C8B91748008810
:1044B00000F4804060B10A2C03D00020134908802A
:1044C00020E01248008840F400401049088019E0BC
:1044D0000D2C06D10D48008840F480400B4908801F
:1044E00010E00A480088C0F30D0009490C54074841
:1044F0000088401C0549088008460088C72801DD5F
:104500000020088010BD000000380140200000207D
:104510004800002021B1828942F40052828104E0E7
:1045200082894DF6FF731A4082817047024600204F
:10453000B1F5007F00D100BF13880B400BB1012003
:1045400000E00020704770B50246002400230025DB
:10455000002040F66A16B14200D100BFC1F34215F7
:1045600001F01F03012606FA03F3012D02D19689FB
:10457000334006E0022D02D1168A334001E0968ACC
:1045800033400C12012606FA04F41688344013B1A5
:104590000CB1012000E0002070BDF0B503460024FE
:1045A00000260025002040F66A17B94200D100BF5E
:1045B0001846C1F3421401F01F06012707FA06F559
:1045C000012C01D10C3004E0022C01D1103000E0AC
:1045D00014301AB107682F43076002E00768AF4341
:1045E0000760F0BD2DE9F04786B005460E46002471
:1045F000A24600BFA1460027B08900B100BF2F46E8
:104600002C8A4CF6FF700440F08804432C82AC895D
:104610004EF6F3100440B08831890843718908438D
:104620000443AC81AC8A4FF6FF400440B089044398
:10463000AC8201A8FFF7F6F91F48874202D1DDF8E6
:1046400010A001E0DDF80CA0A88900F4004040B102
:104650000AEBCA0000EB0A1031684900B0FBF1F820
:1046600007E00AEBCA0000EB0A1031688900B0FBD2
:10467000F1F86420B8FBF0F004012009642101FB8B
:104680001089A88900F4004040B1322000EBC90035
:10469000B0FBF1F000F00700044308E0322000EB2B
:1046A00009106421B0FBF1F000F00F0004432C81ED
:1046B00006B0BDE8F0870000003801400146888858
:1046C000C0F30800704700BFFEE700001FB50121DE
:1046D0000520FFF787F90120ADF80C0028208DF8A0
:1046E0000F0003A91448FCF72DF800210846FCF739
:1046F00009F80120009000208DF8040008208DF8B2
:10470000050001208DF806006846FBF7E1FE062053
:104710008DF8080002208DF809008DF80A000120AC
:104720008DF80B0002A8FFF7D9F8FBF79FFE08B938
:10473000FFF708FB1FBD00000008014000BF7047E5
:1047400010B56FF00400FFF7DFFA0A4800680A4965
:10475000B0FBF1F0094908700846007800EB400111
:10476000C1EBC0104FF6FF7101EAC0000449088098
:1047700010BD00000400002000127A001800002084
:104780001A0000200146114A12884A434FF0E023E4
:104790005A6100229A611A46126942F001021A61B6
:1047A00000BF4FF0E022106900F001021AB100F4DE
:1047B0008032002AF5D04FF0E022126922F0010287
:1047C0004FF0E0231A6100229A6170471A0000201E
:1047D0000146114A12784A434FF0E0235A61002201
:1047E0009A611A46126942F001021A6100BF4FF045
:1047F000E022106900F001021AB100F48032002AB0
:10480000F5D04FF0E022126922F001024FF0E023D0
:104810001A6100229A6170471800002000BF054A03
:10482000128802F04002002AF9D0C2B2014B1B1DCF
:104830001A807047003801400020074908600120B5
:104840000649C1F8B4010449091D08600020034964
:10485000C1F8B00170470000B881214200802142B8
:1048600001200749086000200649C1F8B401044945
:10487000091D086001200349C1F8B001704700001C
:10488000B8812142008021421CB5FFF759FF4FF447
:10489000A060FFF75BF84FF4165000F05FF9FEF7E9
:1048A000F3FFFCF709F8FFF711FFFCF7CBF9FFF76F
:1048B00023F9FBF7E5FEFBF7DFFFFCF76DF80021BE
:1048C000C720FFF79BFB4FF478407A4908807AA015
:1048D00010210B46C822CDE9001000210846FEF742
:1048E00082FF7BA010210B46C822CDE900101421C5
:1048F0000020FEF778FF7A484FF4A073F0222821B9
:1049000000900020FEF752FFD3E00020FBF7F2FFFB
:104910000546FFF74FF90446A22C71D0012D39D17D
:10492000FBF7BCFF6F480078702802D1FFF798FFB3
:10493000BFE06C480078502802D100F0EBF8B8E0F6
:1049400068480078602802D1FFF78AFFB1E0654827
:104950000078302802D1FFF783FFAAE06148007891
:10496000402802D100F0E8F8A3E05E480078102863
:1049700002D100F0CFF89CE05A480078202802D1FC
:10498000FFF76EFF95E0574800780028BCD1FFF78D
:1049900053FF8EE0022DB7D104E05348FFF78EFE9F
:1049A0005249087020215048FFF7C0FD0028F4D07C
:1049B0004E480078082833D2DFE800F03204190DA1
:1049C00010232C2FFFF74CFF4FF4FA70FFF7DAFE9D
:1049D00000F08EF824E000F08BF821E000F0ACF855
:1049E0004FF4FA70FFF7CEFE00F082F818E000F006
:1049F00091F84FF4FA70FFF7C5FE00F079F80FE078
:104A00000FE0FFF719FF4FF4FA70FFF7BBFE00F05D
:104A10006FF805E0FBF750FE02E0FBF75FFE00BF1A
:104A200047E044E0FFF7C6F80446E22C00D13FE03F
:104A3000902C38D006DC022C14D0222C1ED0622CF4
:104A400034D106E0A82C22D0C22C0ED0E02C2DD1DF
:104A500026E0FFF705FF4FF4FA70FFF793FE00F032
:104A600047F823E000F044F820E000F065F84FF448
:104A7000FA70FFF787FE00F03BF817E000F04AF805
:104A80004FF4FA70FFF77EFE00F032F80EE0FFF709
:104A9000D3FE4FF4FA70FFF775FE00F029F805E039
:104AA000FBF70AFE02E0FBF719FE00BF00BFB9E703
:104AB00000BF2AE742000020526F626F74205661E7
:104AC0006375756D20436C65616E65720000000052
:104AD00032303233202D2035202D203320000000AD
:104AE000784E000836000020003801400000002009
:104AF0000020064908600649C1F8B4010349091DB0
:104B000008600349C1F8B00170470000B881214234
:104B1000008021420020064908600649C1F8B4011E
:104B20000349091D086001200249C1F8B00170471E
:104B3000B8812142008021420120064908600020FE
:104B40000549C1F8B4010349091D08600249C1F8CB
:104B5000B0017047B88121420080214210B586B073
:104B60000446012144F20400FEF73CFF4FF40070BC
:104B7000ADF8140003208DF8160018208DF81700EA
:104B800005A91C48FBF7DEFD4FF48060ADF814006A
:104B900004208DF8170005A91648FBF7D3FD252042
:104BA0008DF8000003208DF801008DF8020001202F
:104BB0008DF803006846FEF791FE01940020ADF8E1
:104BC0000800ADF80A00ADF80C00ADF810000C209C
:104BD000ADF80E0001A90848FFF704FD012240F2DC
:104BE00025510548FFF7D9FC01210348FFF792FC46
:104BF00006B010BD00080140003801404FEA1153D3
:104C0000A3F58063D3F11E03A8BFD3F1200C08DB0A
:104C10004FF0004242EAC12252EA505232FA03F007
:104C2000704709420BD4102BC4BF0020704703F516
:104C3000787CBCF1FF3F05D04FF0FF3070474FF05C
:104C40000000704770B500F0C3F800BF499224809F
:104C500000207047F0E7B0FA80F310FA03F10AD0B1
:104C6000C3F11D0303F580634FEA41504FEA03523D
:104C700002EBD12170474FF000007047DFF848C1C8
:104C800070B51CEA111E1EBF1CEA13159EEA0C0F1C
:104C900095EA0C0F00F06F8081EA030423EA4C13BD
:104CA0004EEAD47E21EA4C1141F4801143F4801382
:104CB000AE44A1FB024CA0FB0365AEF17F7E36192A
:104CC00055EB0C05A1FB034C4CF10003A0FB021CAF
:104CD00016EB0C06654153F10003094218BF46F07C
:104CE000010613F4007F0BD14FEA03314FEA053080
:104CF000340341EA155140EA16506FF003020AE00E
:104D00004FEAC3214FEAC520F40241EA555140EA77
:104D100056506FF0020202EB2E4201EB025585EA7B
:104D2000CE710AD05FEA440C18BF24F0004450F161
:104D3000000041F1000120EAD47040F2FE7C62459F
:104D400000D270BDA84214BF4FF080444FF04044E1
:104D5000002E08BF0024BEF1806FA8BFA1F1C041A2
:104D6000BDE8704080F282804FF0000001F1C04148
:104D700001F0004170479EEA0C0F0CEA131518BFB2
:104D800095EA0C0F06D04FF0000081EA030E0EF0FA
:104D9000004170BD00F01CF88900013E00F007B82A
:104DA00000F009B84FEA430C5FEA5C5C08D081EA86
:104DB000030100F05BB84FEA410C5FEA5C5CF6D19E
:104DC0004FF00000014970470000FF070000F87F26
:104DD0000EF1020E2EF0030E5EF8046B364205D47F
:104DE000012A43EB030515F5001F12D8012841EBFA
:104DF000010C1CF5001F0CD80ED14FEAD17C15F523
:104E0000001F0CEB4C0C0CF1020C08BF4CEBD37CDC
:104E100004E04FF0080C01E04FEAD37C0CEB4C05AA
:104E200026FA05F606F00706B6F1040C06D20EEBDC
:104E3000860CBDE870404CF0010C6047DFE80CF0D8
:104E4000090B02024FF000414FF00000A1F50021D4
:104E500070BD19461046012851EB010418BFD4F566
:104E6000001484BF002001F0004170BD0808A0F5C7
:104E700000114FEA31017047122F122F122F120F1B
:104E8000120F120F120F120F122F120F120F0A0F02
:104E900009EF09EF09EF09EF0A100A100A1009EFEC
:104EA00009EF09EF0A0F0A0F0A0F0A0F0A0F0A0F7C
:104EB0000A0F0A0F0A0F0A0F0A100A1009F00A1047
:104EC0000A100A100A100A100A100A1012101230E2
:104ED00012101230123012301A92127112711271B5
:104EE00012921A921272125112511A9212510A30DF
:104EF00012510A310A311A930A120A120A120A12BC
:104F00000A120A320A320A320A320A320A320A32E1
:104F10000A520A520A520A520A720A920A720A7112
:104F20000A710A920A710A510A510A510A510A5128
:104F30000A510A510A310A310A320A530A530A53F2
:104F40000A320A320A320A5312531253125312739C
:104F50001273127312731273127312731273127329
:104F6000127312731273127312931273125212533A
:104F70001273129312730A520A730A720A520A5275
:104F80000A520A520A730A730A530A530A530A53FB
:104F90000A530A530A53025302720252021209F1CF
:104FA000094E092B19691947218721662987298804
:104FB0002168216821671946216721672147214718
:104FC00029262925292521241904214519261906D0
:104FD00019271926214629A729662104212531866A
:104FE00031A731A629862166216621451925298602
:104FF0002166214529A7298631E829A629862986FF
:105000002987296729672967296729672947294641
:105010002946294529452946212529462946296623
:1050200029462946296631C731862966318629668F
:10503000296631A7318631C73187298631A731C723
:1050400031C839E839E931A83A09296631A739E880
:105050003A09420931A7296612311231123112314F
:105060001231123112311251123112311231123108
:1050700012311231125112520A320A320A320A32F3
:105080000A320A320A310A310A310A310A310A3146
:105090000A310A310A310A310A320A310A110A3157
:1050A0000A310A320A310A110A310A310A310A3147
:1050B0000A310A110A110A1112520A520A310A322D
:1050C0001252127212520A320A310A520A31021173
:1050D0000A320A320A3212730A320A320A320A32A7
:1050E0000A320A320A320A320A320A320A320A32E0
:1050F0000A320A320A530A530A930A930A730A724B
:105100000A720A930A7302520A520A520A520A5245
:105110000A320A320A320A320A530A530A530A532B
:105120000A330A330A330A530A330A330A530A5337
:105130000A530A530A530A530A530A520A520A528A
:105140000A520A520A520A5212530A520A320A32B6
:105150000A5312530A520A320232025202520252C5
:10516000025202520252023202320232023202323F
:10517000023202320232023202520252023209D1A9
:10518000012D00CA08E808C508C408C310E410E5EA
:1051900010A510A510C408A308A408A410A410A466
:1051A00010A418C418C318C318E318E410E410C4FA
:1051B00010E510E410C310C318E41082108218E444
:1051C000212521452125212510E4190410E410E4AE
:1051D00010C3190421662166214521452145214638
:1051E0002146212619061906190518E518E518C4DF
:1051F00018C418C318C318C418E418E418E4210527
:105200002105210521042125212521042125210510
:1052100021252145212521252125212521452966D5
:10522000318739E8422939E839E8296631C839C86F
:1052300031A731A7296629660A3302330A330233BC
:105240000A340A540A540A54023302340A540A54DF
:10525000025402540A540A750A550A550A750A7509
:105260000A750A550A550A540234023402340234CB
:1052700002340234023402340A5402340234023456
:1052800002540A540A540233023302330233023303
:1052900002330233023302330A340233021302139D
:1052A0000A330A340A3402130A3402330213021393
:1052B00002140A340A340A540A330A330A330A330A
:1052C0000A330A330A530A530A530A530A530A5336
:1052D00002530253025302330A950A750A750254A7
:1052E0000A740A750A750254023402340234023414
:1052F0000A340A340A340A340A530A530A740A5321
:105300000A5302530A530A5302330233023302335D
:1053100002330233023302330A330A320A320A32C8
:105320000A320A320A320A320A5302320232023294
:105330000A320A5302320212025202530A530A7309
:105340000A730A53025302530A530A530A5302536D
:10535000025302530A330253023202520A3309F251
:10536000016E00EB00C8008508C508A408C410C57C
:1053700010A510A410C410A310C410C418C418C4DD
:1053800018C418E418E418E418E318E319242145B4
:1053900029652165212318C2212418E318C31904A3
:1053A000212521252125214510C321251904190472
:1053B0001925216529862145110319241925192547
:1053C0001925190518E518E5190518E518E518E473
:1053D00018E418E418E418E4212518E4210521252F
:1053E000212521252105210518E418E42125210482
:1053F00018E4190418E421252145214521452145BA
:10540000296639E8422939E831C7298631A731C7E9
:1054100031A72986298629A70234023402340234AE
:1054200002340234023402540255027502750275C8
:1054300002550234025502550255025502550255D5
:1054400002550255025502550255025502550255A4
:105450000255025502550255027502550255025574
:1054600002750255025502550234023402340234E8
:10547000023402340254025402550234023402341B
:1054800002350A55023502340234021402350A5537
:1054900002350A550A760A550234023302330253A2
:1054A0000253025302530253025402530254025352
:1054B00002540253025302540275027602750255D9
:1054C00002550A760255023502350235023502359B
:1054D0000235023502350234025402540254025499
:1054E00002530233025302540233023302330233B3
:1054F00002330253025302530233023302330233A4
:1055000002330233023302330253023302330233D3
:1055100002530253023302320232023202320233A7
:1055200002330232023202330233023302330233D5
:105530000213021202130212021202320A53121250
:1055400009B0092C00E900C708C508C508A510C5A1
:1055500010C510A418C410A318E418E418E418E443
:1055600018E418E418E418E418E410C318E3190365
:105570002103296431852965210418E410A218C388
:1055800021252145298629861904214518E4190475
:10559000298629A6216519041904214521451904E4
:1055A000190519051905190618E518E518C418C4D0
:1055B00018E418E418E418E418E418E418E42105E1
:1055C000210521052104210418E421042945210590
:1055D00018E418E421042966298629A629652124CE
:1055E000296531C731C72986298629462966298632
:1055F00029862966216629660254025402540254FF
:10560000025302530253025302740274029502744D
:1056100002540233025402540274027402540254BB
:10562000025402540274027402740274027402740A
:1056300002740274027402740275027502550255F6
:105640000275027502550255025402540254025466
:105650000254025402540254025502550254025498
:105660000255025502550255023402340A760A9652
:1056700002550255027502550234023402340234D6
:10568000025402540254025402540254025402546A
:1056900002540274025402750275027502750255B5
:1056A00002550275025502350255023502350235A2
:1056B00002350235023502340234025402540254D7
:1056C0000233023302330254023302330233023311
:1056D0000233023302540254025302530253025360
:1056E0000253025302530253025402530253025311
:1056F00002530253025302330233023302330232A3
:105700000232023302330233023302130213021352
:105710000213021302130213021202330A540A1272
:1057200009B0094D00EA00C800A608E608A508A5CA
:1057300010A5108318A3188318C310C310C210E259
:1057400010E310E310E410E510C408A310C310C266
:1057500010A218E3212521452145214510A310A2BF
:1057600018E4296531A621452124192410A2190421
:10577000296521652145192419252166214519042A
:10578000190519051905212618E518C518C418C4E6
:1057900018C418E418C318C318C318C418E418E4CC
:1057A00018E418C41904212518E418E4210418E4A5
:1057B00018E421252125296529A631A5298521441B
:1057C000296531A62986296529862986298629867B
:1057D00029872966214621460274027402740274E4
:1057E000027302730273025302530274027402744E
:1057F000027302530273027402740274027402543C
:10580000025402740274027402730273027302730C
:10581000027302730273027302740274025402541C
:105820000274027402540254025402540254025488
:1058300002540254025402540254025402540254B8
:105840000254025402540254023402540A950A9635
:105850000255023402540234023402340234023457
:105860000234025402540254025402540254027587
:105870000275027502750275027502750275025491
:105880000254027502550234025402540254025466
:105890000234023402340234023402340254023438
:1058A000023402330234023402330233023302334D
:1058B0000233023302330233023302330233023340
:1058C0000233023302330233023302330233023330
:1058D00002330233023302330254025302330233DF
:1058E00002330233025402540233023302340233CD
:1058F0000234023302330233023302330A3409F230
:1059000009D1098F00EB00E900E8090800A608A604
:1059100010A5106318A3108318E418E310E3110313
:10592000110308E408E510E508C410C41904212493
:1059300018E318E418E518E5298631C729862124DB
:1059400010C3190431A621451904190318E3298647
:1059500031A621452145298621452986214519045D
:105960002125190518E519052126210518E518E452
:1059700018E418E418E418C318E418E42105210514
:10598000210518E421252966210518C318E418E427
:1059900021453186294521252165298529652964E7
:1059A000298531A631A631A6296631A731A731A7AD
:1059B00029872146296629870274027402740274B9
:1059C0000274027302540254027402740274027468
:1059D00002740274027402940274027402740274F7
:1059E0000274027402740274027402740274027407
:1059F000027402740274027402740253025302535A
:105A000002540274025402530273025302530253AB
:105A100002530253025302530253025302530253DE
:105A200002530253025302530233025302740274AC
:105A30000254025402740274025402540254025476
:105A4000025502550255025502550255025502757E
:105A50000275027502750275027402940274027472
:105A60000274027402740253025402540254025427
:105A7000025302530253025302540254025402547A
:105A8000023402340254025402330233023302332A
:105A9000023302330234023402330233023302335C
:105AA000023302330233023302340234023402344A
:105AB000023402340234023302330233023302333B
:105AC000023302330233023302330233021302136E
:105AD00002130213021302130234021302340213DC
